{
  "_format": "hh-sol-artifact-1",
  "contractName": "DLOBEX",
  "sourceName": "contracts/DLOBEX.sol",
  "abi": [
    {
      "inputs": [
        {
          "internalType": "address",
          "name": "token_base_address",
          "type": "address"
        },
        {
          "internalType": "address",
          "name": "token_term_address",
          "type": "address"
        }
      ],
      "stateMutability": "nonpayable",
      "type": "constructor"
    },
    {
      "anonymous": false,
      "inputs": [
        {
          "components": [
            {
              "internalType": "uint256",
              "name": "id_int",
              "type": "uint256"
            },
            {
              "internalType": "uint256",
              "name": "id_ext",
              "type": "uint256"
            },
            {
              "internalType": "address",
              "name": "owner",
              "type": "address"
            },
            {
              "internalType": "bool",
              "name": "is_buy",
              "type": "bool"
            },
            {
              "internalType": "uint256",
              "name": "size",
              "type": "uint256"
            },
            {
              "internalType": "uint256",
              "name": "price",
              "type": "uint256"
            }
          ],
          "indexed": false,
          "internalType": "struct DLOBEX.Order",
          "name": "order",
          "type": "tuple"
        }
      ],
      "name": "OrderPlacedEvent",
      "type": "event"
    },
    {
      "anonymous": false,
      "inputs": [
        {
          "components": [
            {
              "internalType": "uint256",
              "name": "id_int",
              "type": "uint256"
            },
            {
              "internalType": "uint256",
              "name": "id_ext",
              "type": "uint256"
            },
            {
              "internalType": "address",
              "name": "owner",
              "type": "address"
            },
            {
              "internalType": "bool",
              "name": "is_buy",
              "type": "bool"
            },
            {
              "internalType": "uint256",
              "name": "size",
              "type": "uint256"
            },
            {
              "internalType": "uint256",
              "name": "price",
              "type": "uint256"
            }
          ],
          "indexed": false,
          "internalType": "struct DLOBEX.Order",
          "name": "order",
          "type": "tuple"
        }
      ],
      "name": "OrderRemovedEvent",
      "type": "event"
    },
    {
      "anonymous": false,
      "inputs": [
        {
          "components": [
            {
              "internalType": "uint256",
              "name": "id_int",
              "type": "uint256"
            },
            {
              "internalType": "uint256",
              "name": "id_ext",
              "type": "uint256"
            },
            {
              "internalType": "address",
              "name": "owner",
              "type": "address"
            },
            {
              "internalType": "bool",
              "name": "is_buy",
              "type": "bool"
            },
            {
              "internalType": "uint256",
              "name": "size",
              "type": "uint256"
            },
            {
              "internalType": "uint256",
              "name": "price",
              "type": "uint256"
            }
          ],
          "indexed": false,
          "internalType": "struct DLOBEX.Order",
          "name": "order",
          "type": "tuple"
        }
      ],
      "name": "OrderUpdatedEvent",
      "type": "event"
    },
    {
      "anonymous": false,
      "inputs": [
        {
          "indexed": true,
          "internalType": "address",
          "name": "previousOwner",
          "type": "address"
        },
        {
          "indexed": true,
          "internalType": "address",
          "name": "newOwner",
          "type": "address"
        }
      ],
      "name": "OwnershipTransferred",
      "type": "event"
    },
    {
      "anonymous": false,
      "inputs": [
        {
          "indexed": false,
          "internalType": "address",
          "name": "adr",
          "type": "address"
        }
      ],
      "name": "ParticipantAddedEvent",
      "type": "event"
    },
    {
      "anonymous": false,
      "inputs": [
        {
          "indexed": false,
          "internalType": "address",
          "name": "adr",
          "type": "address"
        }
      ],
      "name": "ParticipantRemovedEvent",
      "type": "event"
    },
    {
      "anonymous": false,
      "inputs": [
        {
          "indexed": false,
          "internalType": "address",
          "name": "adr1",
          "type": "address"
        },
        {
          "indexed": false,
          "internalType": "uint256",
          "name": "token1_amount",
          "type": "uint256"
        },
        {
          "indexed": false,
          "internalType": "address",
          "name": "token1",
          "type": "address"
        },
        {
          "indexed": false,
          "internalType": "address",
          "name": "adr2",
          "type": "address"
        },
        {
          "indexed": false,
          "internalType": "uint256",
          "name": "token2_amount",
          "type": "uint256"
        },
        {
          "indexed": false,
          "internalType": "address",
          "name": "token2",
          "type": "address"
        },
        {
          "indexed": false,
          "internalType": "uint256",
          "name": "price",
          "type": "uint256"
        }
      ],
      "name": "SettlementInstruction",
      "type": "event"
    },
    {
      "anonymous": false,
      "inputs": [],
      "name": "TradingStartedEvent",
      "type": "event"
    },
    {
      "anonymous": false,
      "inputs": [],
      "name": "TradingStoppedEvent",
      "type": "event"
    },
    {
      "inputs": [
        {
          "internalType": "address",
          "name": "participant",
          "type": "address"
        }
      ],
      "name": "add_participant",
      "outputs": [],
      "stateMutability": "nonpayable",
      "type": "function"
    },
    {
      "inputs": [
        {
          "internalType": "uint256",
          "name": "price",
          "type": "uint256"
        },
        {
          "internalType": "bool",
          "name": "is_buy",
          "type": "bool"
        }
      ],
      "name": "add_price",
      "outputs": [],
      "stateMutability": "nonpayable",
      "type": "function"
    },
    {
      "inputs": [],
      "name": "base_token",
      "outputs": [
        {
          "internalType": "address",
          "name": "",
          "type": "address"
        }
      ],
      "stateMutability": "view",
      "type": "function"
    },
    {
      "inputs": [
        {
          "internalType": "bool",
          "name": "is_buy",
          "type": "bool"
        }
      ],
      "name": "best_price",
      "outputs": [
        {
          "internalType": "uint256",
          "name": "",
          "type": "uint256"
        }
      ],
      "stateMutability": "view",
      "type": "function"
    },
    {
      "inputs": [
        {
          "internalType": "uint256",
          "name": "price",
          "type": "uint256"
        }
      ],
      "name": "buy_order_ids",
      "outputs": [
        {
          "internalType": "uint256[]",
          "name": "",
          "type": "uint256[]"
        }
      ],
      "stateMutability": "view",
      "type": "function"
    },
    {
      "inputs": [],
      "name": "buy_prices",
      "outputs": [
        {
          "internalType": "uint256[]",
          "name": "",
          "type": "uint256[]"
        }
      ],
      "stateMutability": "view",
      "type": "function"
    },
    {
      "inputs": [],
      "name": "debug",
      "outputs": [
        {
          "internalType": "string",
          "name": "",
          "type": "string"
        }
      ],
      "stateMutability": "view",
      "type": "function"
    },
    {
      "inputs": [],
      "name": "get_base_fee",
      "outputs": [
        {
          "internalType": "uint256",
          "name": "",
          "type": "uint256"
        }
      ],
      "stateMutability": "view",
      "type": "function"
    },
    {
      "inputs": [
        {
          "internalType": "uint256",
          "name": "id",
          "type": "uint256"
        }
      ],
      "name": "get_order",
      "outputs": [
        {
          "internalType": "uint256",
          "name": "",
          "type": "uint256"
        },
        {
          "internalType": "address",
          "name": "",
          "type": "address"
        },
        {
          "internalType": "bool",
          "name": "",
          "type": "bool"
        },
        {
          "internalType": "uint256",
          "name": "",
          "type": "uint256"
        },
        {
          "internalType": "uint256",
          "name": "",
          "type": "uint256"
        }
      ],
      "stateMutability": "view",
      "type": "function"
    },
    {
      "inputs": [],
      "name": "get_term_fee",
      "outputs": [
        {
          "internalType": "uint256",
          "name": "",
          "type": "uint256"
        }
      ],
      "stateMutability": "view",
      "type": "function"
    },
    {
      "inputs": [
        {
          "internalType": "address",
          "name": "participant",
          "type": "address"
        }
      ],
      "name": "is_participant_allowed",
      "outputs": [
        {
          "internalType": "bool",
          "name": "",
          "type": "bool"
        }
      ],
      "stateMutability": "view",
      "type": "function"
    },
    {
      "inputs": [],
      "name": "is_trading_allowed",
      "outputs": [
        {
          "internalType": "bool",
          "name": "",
          "type": "bool"
        }
      ],
      "stateMutability": "view",
      "type": "function"
    },
    {
      "inputs": [],
      "name": "last_traded_price",
      "outputs": [
        {
          "internalType": "uint256",
          "name": "",
          "type": "uint256"
        }
      ],
      "stateMutability": "view",
      "type": "function"
    },
    {
      "inputs": [],
      "name": "owner",
      "outputs": [
        {
          "internalType": "address",
          "name": "",
          "type": "address"
        }
      ],
      "stateMutability": "view",
      "type": "function"
    },
    {
      "inputs": [
        {
          "internalType": "uint256",
          "name": "ext_order_id",
          "type": "uint256"
        },
        {
          "internalType": "bool",
          "name": "is_buy",
          "type": "bool"
        },
        {
          "internalType": "uint256",
          "name": "amount",
          "type": "uint256"
        },
        {
          "internalType": "uint256",
          "name": "price",
          "type": "uint256"
        }
      ],
      "name": "place_limit_order",
      "outputs": [],
      "stateMutability": "nonpayable",
      "type": "function"
    },
    {
      "inputs": [
        {
          "internalType": "bool",
          "name": "is_buy",
          "type": "bool"
        },
        {
          "internalType": "uint256",
          "name": "amount",
          "type": "uint256"
        }
      ],
      "name": "place_market_order",
      "outputs": [],
      "stateMutability": "nonpayable",
      "type": "function"
    },
    {
      "inputs": [],
      "name": "print_clob",
      "outputs": [],
      "stateMutability": "view",
      "type": "function"
    },
    {
      "inputs": [
        {
          "internalType": "address",
          "name": "participant",
          "type": "address"
        }
      ],
      "name": "remove_participant",
      "outputs": [],
      "stateMutability": "nonpayable",
      "type": "function"
    },
    {
      "inputs": [],
      "name": "renounceOwnership",
      "outputs": [],
      "stateMutability": "nonpayable",
      "type": "function"
    },
    {
      "inputs": [],
      "name": "reset",
      "outputs": [],
      "stateMutability": "nonpayable",
      "type": "function"
    },
    {
      "inputs": [
        {
          "internalType": "uint256",
          "name": "price",
          "type": "uint256"
        }
      ],
      "name": "sell_order_ids",
      "outputs": [
        {
          "internalType": "uint256[]",
          "name": "",
          "type": "uint256[]"
        }
      ],
      "stateMutability": "view",
      "type": "function"
    },
    {
      "inputs": [],
      "name": "sell_prices",
      "outputs": [
        {
          "internalType": "uint256[]",
          "name": "",
          "type": "uint256[]"
        }
      ],
      "stateMutability": "view",
      "type": "function"
    },
    {
      "inputs": [
        {
          "internalType": "uint256",
          "name": "fee",
          "type": "uint256"
        }
      ],
      "name": "set_base_fee",
      "outputs": [],
      "stateMutability": "nonpayable",
      "type": "function"
    },
    {
      "inputs": [
        {
          "internalType": "uint256",
          "name": "fee",
          "type": "uint256"
        }
      ],
      "name": "set_term_fee",
      "outputs": [],
      "stateMutability": "nonpayable",
      "type": "function"
    },
    {
      "inputs": [],
      "name": "start_trading",
      "outputs": [],
      "stateMutability": "nonpayable",
      "type": "function"
    },
    {
      "inputs": [],
      "name": "stop_trading",
      "outputs": [],
      "stateMutability": "nonpayable",
      "type": "function"
    },
    {
      "inputs": [],
      "name": "term_token",
      "outputs": [
        {
          "internalType": "address",
          "name": "",
          "type": "address"
        }
      ],
      "stateMutability": "view",
      "type": "function"
    },
    {
      "inputs": [
        {
          "internalType": "address",
          "name": "newOwner",
          "type": "address"
        }
      ],
      "name": "transferOwnership",
      "outputs": [],
      "stateMutability": "nonpayable",
      "type": "function"
    },
    {
      "inputs": [
        {
          "internalType": "uint256",
          "name": "ext_order_id",
          "type": "uint256"
        },
        {
          "internalType": "bool",
          "name": "is_buy",
          "type": "bool"
        },
        {
          "internalType": "uint256",
          "name": "amount",
          "type": "uint256"
        },
        {
          "internalType": "uint256",
          "name": "price",
          "type": "uint256"
        }
      ],
      "name": "validate_limit_order",
      "outputs": [],
      "stateMutability": "view",
      "type": "function"
    }
  ],
  "bytecode": "0x60806040526000600560006101000a81548160ff02191690831515021790555060006006556000600755600060085560016009553480156200004057600080fd5b506040516200502a3803806200502a833981810160405281019062000066919062000234565b620000866200007a6200015160201b60201c565b6200015960201b60201c565b33600160006101000a81548173ffffffffffffffffffffffffffffffffffffffff021916908373ffffffffffffffffffffffffffffffffffffffff16021790555081600260006101000a81548173ffffffffffffffffffffffffffffffffffffffff021916908373ffffffffffffffffffffffffffffffffffffffff16021790555080600360006101000a81548173ffffffffffffffffffffffffffffffffffffffff021916908373ffffffffffffffffffffffffffffffffffffffff1602179055505050620002c3565b600033905090565b60008060009054906101000a900473ffffffffffffffffffffffffffffffffffffffff169050816000806101000a81548173ffffffffffffffffffffffffffffffffffffffff021916908373ffffffffffffffffffffffffffffffffffffffff1602179055508173ffffffffffffffffffffffffffffffffffffffff168173ffffffffffffffffffffffffffffffffffffffff167f8be0079c531659141344cd1fd0a4f28419497f9722a3daafe3b4186f6b6457e060405160405180910390a35050565b6000815190506200022e81620002a9565b92915050565b600080604083850312156200024857600080fd5b600062000258858286016200021d565b92505060206200026b858286016200021d565b9150509250929050565b6000620002828262000289565b9050919050565b600073ffffffffffffffffffffffffffffffffffffffff82169050919050565b620002b48162000275565b8114620002c057600080fd5b50565b614d5780620002d36000396000f3fe608060405234801561001057600080fd5b50600436106101cf5760003560e01c80639799410711610104578063c7234600116100a2578063e9303c6f11610071578063e9303c6f1461049a578063f0ac0250146104b8578063f2fde38b146104e8578063f7bb9aac14610504576101cf565b8063c72346001461044e578063d130525214610458578063d826f88f14610474578063e07daf091461047e576101cf565b8063b4a803ff116100de578063b4a803ff146103ec578063b66ad02b146103f6578063bf94e2e614610414578063c39650bd14610432576101cf565b806397994107146103845780639e5035ed146103a0578063ae2c8b22146103d0576101cf565b80635fcb317c1161017157806375ce738e1161014b57806375ce738e146102fa57806375eb7e88146103185780638da5cb5b14610336578063916a250c14610354576101cf565b80635fcb317c146102a057806370b5966e146102d4578063715018a6146102f0576101cf565b806349f4d437116101ad57806349f4d4371461021857806352ada1ab14610236578063588ee29b146102665780635ebf77d814610284576101cf565b8063058bb53f146101d45780630ec9a2ab146101f25780632efc65d41461020e575b600080fd5b6101dc610522565b6040516101e991906144a0565b60405180910390f35b61020c60048036038101906102079190613c52565b61052c565b005b610216610e81565b005b610220610f46565b60405161022d91906144a0565b60405180910390f35b610250600480360381019061024b9190613b0d565b610f50565b60405161025d919061422d565b60405180910390f35b61026e610fa6565b60405161027b9190614248565b60405180910390f35b61029e60048036038101906102999190613c52565b611038565b005b6102ba60048036038101906102b59190613bc4565b611191565b6040516102cb9594939291906144bb565b60405180910390f35b6102ee60048036038101906102e99190613bc4565b611209565b005b6102f861128f565b005b610302611317565b60405161030f9190614121565b60405180910390f35b610320611341565b60405161032d91906144a0565b60405180910390f35b61033e61134b565b60405161034b9190614121565b60405180910390f35b61036e60048036038101906103699190613bc4565b611374565b60405161037b919061420b565b60405180910390f35b61039e60048036038101906103999190613b88565b6113df565b005b6103ba60048036038101906103b59190613b36565b6117d5565b6040516103c791906144a0565b60405180910390f35b6103ea60048036038101906103e59190613c16565b6118ab565b005b6103f4611c98565b005b6103fe611d5d565b60405161040b919061420b565b60405180910390f35b61041c611db5565b604051610429919061422d565b60405180910390f35b61044c60048036038101906104479190613b0d565b611dcc565b005b610456611eda565b005b610472600480360381019061046d9190613b0d565b612126565b005b61047c612234565b005b61049860048036038101906104939190613bc4565b61246d565b005b6104a26124f3565b6040516104af9190614121565b60405180910390f35b6104d260048036038101906104cd9190613bc4565b61251d565b6040516104df919061420b565b60405180910390f35b61050260048036038101906104fd9190613b0d565b612588565b005b61050c612680565b604051610519919061420b565b60405180910390f35b6000600754905090565b6040518060200160405280600081525060109080519060200190610551929190613945565b50600560009054906101000a900460ff166105a1576040517f08c379a00000000000000000000000000000000000000000000000000000000081526004016105989061444a565b60405180910390fd5b600460003373ffffffffffffffffffffffffffffffffffffffff1673ffffffffffffffffffffffffffffffffffffffff16815260200190815260200160002060009054906101000a900460ff1661062d576040517f08c379a0000000000000000000000000000000000000000000000000000000008152600401610624906143ea565b60405180910390fd5b6040518060400160405280601681526020017f76616c69646174696e67206c696d6974206f726465720000000000000000000081525060109080519060200190610678929190613945565b5061068584848484611038565b6040518060400160405280601581526020017f76616c696461746564206c696d6974206f726465720000000000000000000000815250601090805190602001906106d0929190613945565b5060006106dd84156126d8565b90506040518060400160405280601b81526020017f6372656174696e67206d656d6f7279206c696d6974206f7264657200000000008152506010908051906020019061072a929190613945565b50600061073a33878787876126f3565b90506040518060400160405280601381526020017f63726561746564206c696d6974206f726465720000000000000000000000000081525060109080519060200190610787929190613945565b5060008260008581526020019081526020016000208054905014806107b55750826107b286156117d5565b14155b156108ab57604051806060016040528060278152602001614c2b60279139601090805190602001906107e8929190613945565b506107f281612768565b604051806060016040528060378152602001614ceb6037913960109080519060200190610820929190613945565b507f386fb813d2c4c2620a12432535c84a9c5ad55d10c9fca0c7c391f7ee3dc2423081604051610850919061446a565b60405180910390a16040518060400160405280601881526020017f656d6974746564204f72646572506c616365644576656e740000000000000000815250601090805190602001906108a3929190613945565b505050610e7b565b6040518060400160405280601081526020017f6d617463686564207363656e6172696f00000000000000000000000000000000815250601090805190602001906108f6929190613945565b5082600881905550600082600085815260200190815260200160002090506000818054905067ffffffffffffffff81111561095a577f4e487b7100000000000000000000000000000000000000000000000000000000600052604160045260246000fd5b6040519080825280602002602001820160405280156109885781602001602082028036833780820191505090505b50905060005b8280549050811015610a36578281815481106109d3577f4e487b7100000000000000000000000000000000000000000000000000000000600052603260045260246000fd5b9060005260206000200154828281518110610a17577f4e487b7100000000000000000000000000000000000000000000000000000000600052603260045260246000fd5b6020026020010181815250508080610a2e90614779565b91505061098e565b50600086905060005b825181108015610a4f5750600082115b15610de1576000600a6000858481518110610a93577f4e487b7100000000000000000000000000000000000000000000000000000000600052603260045260246000fd5b6020026020010151815260200190815260200160002090508060020160009054906101000a900473ffffffffffffffffffffffffffffffffffffffff1673ffffffffffffffffffffffffffffffffffffffff163373ffffffffffffffffffffffffffffffffffffffff161415610b3e576040517f08c379a0000000000000000000000000000000000000000000000000000000008152600401610b359061436a565b60405180910390fd5b80600301548310610be557610b6881600001548260020160149054906101000a900460ff1661289a565b6040518060600160405280602c8152602001614c52602c913960109080519060200190610b96929190613945565b507f6b95666e21f5702b320e6f0e0aa93c1f07826da7a22202af7e5c1923696314f881604051610bc69190614485565b60405180910390a1806003015483610bde9190614613565b9250610d94565b60006040518060c0016040528083600001548152602001836001015481526020018360020160009054906101000a900473ffffffffffffffffffffffffffffffffffffffff1673ffffffffffffffffffffffffffffffffffffffff1681526020018360020160149054906101000a900460ff1615158152602001858460030154610c6f9190614613565b8152602001836004015481525090506000935080600a600084600001548152602001908152602001600020600082015181600001556020820151816001015560408201518160020160006101000a81548173ffffffffffffffffffffffffffffffffffffffff021916908373ffffffffffffffffffffffffffffffffffffffff16021790555060608201518160020160146101000a81548160ff0219169083151502179055506080820151816003015560a08201518160040155905050604051806060016040528060378152602001614cb46037913960109080519060200190610d5a929190613945565b507f6b95666e21f5702b320e6f0e0aa93c1f07826da7a22202af7e5c1923696314f881604051610d8a919061446a565b60405180910390a1505b610dcd8160020160009054906101000a900473ffffffffffffffffffffffffffffffffffffffff1687604001518c84600301548c6128bc565b508080610dd990614779565b915050610a3f565b506000811115610e6d576000610dfa338b8b858b6126f3565b9050610e0581612768565b604051806060016040528060368152602001614c7e6036913960109080519060200190610e33929190613945565b507f386fb813d2c4c2620a12432535c84a9c5ad55d10c9fca0c7c391f7ee3dc2423081604051610e63919061446a565b60405180910390a1505b610e7561317c565b50505050505b50505050565b610e896133c0565b73ffffffffffffffffffffffffffffffffffffffff16610ea761134b565b73ffffffffffffffffffffffffffffffffffffffff1614610efd576040517f08c379a0000000000000000000000000000000000000000000000000000000008152600401610ef4906143ca565b60405180910390fd5b6000600560006101000a81548160ff0219169083151502179055507fa2e85f0a9f88677f3b0cbb59e20653d40901cbe82066aff22044b134e3a5a3ae60405160405180910390a1565b6000600654905090565b6000600460008373ffffffffffffffffffffffffffffffffffffffff1673ffffffffffffffffffffffffffffffffffffffff16815260200190815260200160002060009054906101000a900460ff169050919050565b606060108054610fb5906146f9565b80601f0160208091040260200160405190810160405280929190818152602001828054610fe1906146f9565b801561102e5780601f106110035761010080835404028352916020019161102e565b820191906000526020600020905b81548152906001019060200180831161101157829003601f168201915b5050505050905090565b611041826133c8565b60008111611084576040517f08c379a000000000000000000000000000000000000000000000000000000000815260040161107b906142ea565b60405180910390fd5b6000600b600086815260200190815260200160002054146110da576040517f08c379a00000000000000000000000000000000000000000000000000000000081526004016110d19061428a565b60405180910390fd5b60006110e684156117d5565b905060008114156110f7575061118b565b83156111455780821115611140576040517f08c379a00000000000000000000000000000000000000000000000000000000081526004016111379061440a565b60405180910390fd5b611189565b80821015611188576040517f08c379a000000000000000000000000000000000000000000000000000000000815260040161117f906142ca565b60405180910390fd5b5b505b50505050565b600080600080600080600a6000888152602001908152602001600020905080600101548160020160009054906101000a900473ffffffffffffffffffffffffffffffffffffffff168260020160149054906101000a900460ff1683600401548460030154955095509550955095505091939590929450565b6112116133c0565b73ffffffffffffffffffffffffffffffffffffffff1661122f61134b565b73ffffffffffffffffffffffffffffffffffffffff1614611285576040517f08c379a000000000000000000000000000000000000000000000000000000000815260040161127c906143ca565b60405180910390fd5b8060068190555050565b6112976133c0565b73ffffffffffffffffffffffffffffffffffffffff166112b561134b565b73ffffffffffffffffffffffffffffffffffffffff161461130b576040517f08c379a0000000000000000000000000000000000000000000000000000000008152600401611302906143ca565b60405180910390fd5b611315600061340e565b565b6000600260009054906101000a900473ffffffffffffffffffffffffffffffffffffffff16905090565b6000600854905090565b60008060009054906101000a900473ffffffffffffffffffffffffffffffffffffffff16905090565b6060600c60008381526020019081526020016000208054806020026020016040519081016040528092919081815260200182805480156113d357602002820191906000526020600020905b8154815260200190600101908083116113bf575b50505050509050919050565b6040518060200160405280600081525060109080519060200190611404929190613945565b50600560009054906101000a900460ff16611454576040517f08c379a000000000000000000000000000000000000000000000000000000000815260040161144b9061444a565b60405180910390fd5b600460003373ffffffffffffffffffffffffffffffffffffffff1673ffffffffffffffffffffffffffffffffffffffff16815260200190815260200160002060009054906101000a900460ff166114e0576040517f08c379a00000000000000000000000000000000000000000000000000000000081526004016114d7906143ea565b60405180910390fd5b6114e9816134d2565b60006114f583156134de565b9050600061150384156126d8565b905060008390506000805b84805490508110156117cc576000846000878481548110611558577f4e487b7100000000000000000000000000000000000000000000000000000000600052603260045260246000fd5b90600052602060002001548152602001908152602001600020905060005b81805490508110156117ab576000600a60008484815481106115c1577f4e487b7100000000000000000000000000000000000000000000000000000000600052603260045260246000fd5b906000526020600020015481526020019081526020016000209050806003015486116117655780600301548614156116175761161281600001548260020160149054906101000a900460ff1661289a565b61175c565b60006040518060c0016040528083600001548152602001836001015481526020018360020160009054906101000a900473ffffffffffffffffffffffffffffffffffffffff1673ffffffffffffffffffffffffffffffffffffffff1681526020018360020160149054906101000a900460ff16151581526020018884600301546116a19190614613565b81526020018360040154815250905080600a600083600001518152602001908152602001600020600082015181600001556020820151816001015560408201518160020160006101000a81548173ffffffffffffffffffffffffffffffffffffffff021916908373ffffffffffffffffffffffffffffffffffffffff16021790555060608201518160020160146101000a81548160ff0219169083151502179055506080820151816003015560a08201518160040155905050505b60019450611797565b8060030154866117759190614613565b955061179681600001548260020160149054906101000a900460ff1661289a565b5b5080806117a390614779565b915050611576565b5082156117b857506117cc565b5080806117c490614779565b91505061150e565b50505050505050565b600080600090508280156117ee57506000600d80549050115b1561184057600d60008154811061182e577f4e487b7100000000000000000000000000000000000000000000000000000000600052603260045260246000fd5b906000526020600020015490506118a2565b8215801561185357506000600f80549050115b156118a157600f600081548110611893577f4e487b7100000000000000000000000000000000000000000000000000000000600052603260045260246000fd5b906000526020600020015490505b5b80915050919050565b60006118b6826134de565b905060008060005b83805490508110156119ea57838181548110611903577f4e487b7100000000000000000000000000000000000000000000000000000000600052603260045260246000fd5b906000526020600020015486141561191e5750505050611c94565b8461197f5783818154811061195c577f4e487b7100000000000000000000000000000000000000000000000000000000600052603260045260246000fd5b906000526020600020015486101561197a57809250600191506119ea565b6119d7565b8381815481106119b8577f4e487b7100000000000000000000000000000000000000000000000000000000600052603260045260246000fd5b90600052602060002001548611156119d657809250600191506119ea565b5b80806119e290614779565b9150506118be565b5080611a1d5782859080600181540180825580915050600190039060005260206000200160009091909190915055611c90565b600060018480549050611a309190614563565b67ffffffffffffffff811115611a6f577f4e487b7100000000000000000000000000000000000000000000000000000000600052604160045260246000fd5b604051908082528060200260200182016040528015611a9d5781602001602082028036833780820191505090505b50905060005b83811015611b4757848181548110611ae4577f4e487b7100000000000000000000000000000000000000000000000000000000600052603260045260246000fd5b9060005260206000200154828281518110611b28577f4e487b7100000000000000000000000000000000000000000000000000000000600052603260045260246000fd5b6020026020010181815250508080611b3f90614779565b915050611aa3565b5085818481518110611b82577f4e487b7100000000000000000000000000000000000000000000000000000000600052603260045260246000fd5b6020026020010181815250506000600184611b9d9190614563565b90505b84805490508111611c535784600182611bb99190614613565b81548110611bf0577f4e487b7100000000000000000000000000000000000000000000000000000000600052603260045260246000fd5b9060005260206000200154828281518110611c34577f4e487b7100000000000000000000000000000000000000000000000000000000600052603260045260246000fd5b6020026020010181815250508080611c4b90614779565b915050611ba0565b508415611c765780600d9080519060200190611c709291906139cb565b50611c8e565b80600f9080519060200190611c8c9291906139cb565b505b505b5050505b5050565b611ca06133c0565b73ffffffffffffffffffffffffffffffffffffffff16611cbe61134b565b73ffffffffffffffffffffffffffffffffffffffff1614611d14576040517f08c379a0000000000000000000000000000000000000000000000000000000008152600401611d0b906143ca565b60405180910390fd5b6001600560006101000a81548160ff0219169083151502179055507f8a20996fd734d150d7efe880c7e6057fe37d4446c4d59e79c181a98e344bc96660405160405180910390a1565b6060600d805480602002602001604051908101604052809291908181526020018280548015611dab57602002820191906000526020600020905b815481526020019060010190808311611d97575b5050505050905090565b6000600560009054906101000a900460ff16905090565b611dd46133c0565b73ffffffffffffffffffffffffffffffffffffffff16611df261134b565b73ffffffffffffffffffffffffffffffffffffffff1614611e48576040517f08c379a0000000000000000000000000000000000000000000000000000000008152600401611e3f906143ca565b60405180910390fd5b6001600460008373ffffffffffffffffffffffffffffffffffffffff1673ffffffffffffffffffffffffffffffffffffffff16815260200190815260200160002060006101000a81548160ff0219169083151502179055507fcbfdb4d668880620c7cddca846a22a6ab99471a25a6a522fa18825a523cbbb0f81604051611ecf9190614121565b60405180910390a150565b60005b600d80549050811015611ffe576000600c6000600d8481548110611f2a577f4e487b7100000000000000000000000000000000000000000000000000000000600052603260045260246000fd5b906000526020600020015481526020019081526020016000209050600081805490501115611fea5760005b8180549050811015611fe8576000600a6000848481548110611fa0577f4e487b7100000000000000000000000000000000000000000000000000000000600052603260045260246000fd5b90600052602060002001548152602001908152602001600020905060008160040154118015611fd3575060008160030154115b50508080611fe090614779565b915050611f55565b505b508080611ff690614779565b915050611edd565b5060005b600f80549050811015612123576000600e6000600f848154811061204f577f4e487b7100000000000000000000000000000000000000000000000000000000600052603260045260246000fd5b90600052602060002001548152602001908152602001600020905060008180549050111561210f5760005b818054905081101561210d576000600a60008484815481106120c5577f4e487b7100000000000000000000000000000000000000000000000000000000600052603260045260246000fd5b906000526020600020015481526020019081526020016000209050600081600401541180156120f8575060008160030154115b5050808061210590614779565b91505061207a565b505b50808061211b90614779565b915050612002565b50565b61212e6133c0565b73ffffffffffffffffffffffffffffffffffffffff1661214c61134b565b73ffffffffffffffffffffffffffffffffffffffff16146121a2576040517f08c379a0000000000000000000000000000000000000000000000000000000008152600401612199906143ca565b60405180910390fd5b6000600460008373ffffffffffffffffffffffffffffffffffffffff1673ffffffffffffffffffffffffffffffffffffffff16815260200190815260200160002060006101000a81548160ff0219169083151502179055507f8a4e1fd7f96382ae7a40bd1a9e48e99015ee199725d45fffeaa35bcd797c5813816040516122299190614121565b60405180910390a150565b61223c6133c0565b73ffffffffffffffffffffffffffffffffffffffff1661225a61134b565b73ffffffffffffffffffffffffffffffffffffffff16146122b0576040517f08c379a00000000000000000000000000000000000000000000000000000000081526004016122a7906143ca565b60405180910390fd5b60005b600954811161234057600a600082815260200190815260200160002060008082016000905560018201600090556002820160006101000a81549073ffffffffffffffffffffffffffffffffffffffff02191690556002820160146101000a81549060ff0219169055600382016000905560048201600090555050808061233890614779565b9150506122b3565b5060005b600d805490508110156123c757600c6000600d838154811061238f577f4e487b7100000000000000000000000000000000000000000000000000000000600052603260045260246000fd5b9060005260206000200154815260200190815260200160002060006123b49190613a18565b80806123bf90614779565b915050612344565b50600d60006123d69190613a18565b60005b600f8054905081101561245c57600e6000600f8381548110612424577f4e487b7100000000000000000000000000000000000000000000000000000000600052603260045260246000fd5b9060005260206000200154815260200190815260200160002060006124499190613a18565b808061245490614779565b9150506123d9565b50600f600061246b9190613a18565b565b6124756133c0565b73ffffffffffffffffffffffffffffffffffffffff1661249361134b565b73ffffffffffffffffffffffffffffffffffffffff16146124e9576040517f08c379a00000000000000000000000000000000000000000000000000000000081526004016124e0906143ca565b60405180910390fd5b8060078190555050565b6000600360009054906101000a900473ffffffffffffffffffffffffffffffffffffffff16905090565b6060600e600083815260200190815260200160002080548060200260200160405190810160405280929190818152602001828054801561257c57602002820191906000526020600020905b815481526020019060010190808311612568575b50505050509050919050565b6125906133c0565b73ffffffffffffffffffffffffffffffffffffffff166125ae61134b565b73ffffffffffffffffffffffffffffffffffffffff1614612604576040517f08c379a00000000000000000000000000000000000000000000000000000000081526004016125fb906143ca565b60405180910390fd5b600073ffffffffffffffffffffffffffffffffffffffff168173ffffffffffffffffffffffffffffffffffffffff161415612674576040517f08c379a000000000000000000000000000000000000000000000000000000000815260040161266b9061430a565b60405180910390fd5b61267d8161340e565b50565b6060600f8054806020026020016040519081016040528092919081815260200182805480156126ce57602002820191906000526020600020905b8154815260200190600101908083116126ba575b5050505050905090565b600081156126e957600c90506126ee565b600e90505b919050565b6126fb613a39565b60006040518060c0016040528060095481526020018781526020018873ffffffffffffffffffffffffffffffffffffffff168152602001861515815260200185815260200184815250905060016009546127559190614563565b6009819055508091505095945050505050565b8060000151600b6000836020015181526020019081526020016000208190555080600a600083600001518152602001908152602001600020600082015181600001556020820151816001015560408201518160020160006101000a81548173ffffffffffffffffffffffffffffffffffffffff021916908373ffffffffffffffffffffffffffffffffffffffff16021790555060608201518160020160146101000a81548160ff0219169083151502179055506080820151816003015560a082015181600401559050506128448160a0015182606001516118ab565b600061285382606001516126d8565b90508060008360a001518152602001908152602001600020826000015190806001815401808255809150506001900390600052602060002001600090919091909150555050565b80156128ae576128a9826134f9565b6128b8565b6128b78261371f565b5b5050565b600081836128ca91906145b9565b90508315612d25577f5136f0b0645440da828e58bd4667e082f3323762f139d86b11fea0a7e9a9e7418684600260009054906101000a900473ffffffffffffffffffffffffffffffffffffffff168885600360009054906101000a900473ffffffffffffffffffffffffffffffffffffffff1688604051612951979695949392919061419c565b60405180910390a182600260009054906101000a900473ffffffffffffffffffffffffffffffffffffffff1673ffffffffffffffffffffffffffffffffffffffff1663dd62ed3e88306040518363ffffffff1660e01b81526004016129b792919061413c565b60206040518083038186803b1580156129cf57600080fd5b505afa1580156129e3573d6000803e3d6000fd5b505050506040513d601f19601f82011682018060405250810190612a079190613bed565b1015612a48576040517f08c379a0000000000000000000000000000000000000000000000000000000008152600401612a3f906142aa565b60405180910390fd5b80600360009054906101000a900473ffffffffffffffffffffffffffffffffffffffff1673ffffffffffffffffffffffffffffffffffffffff1663dd62ed3e87306040518363ffffffff1660e01b8152600401612aa692919061413c565b60206040518083038186803b158015612abe57600080fd5b505afa158015612ad2573d6000803e3d6000fd5b505050506040513d601f19601f82011682018060405250810190612af69190613bed565b1015612b37576040517f08c379a0000000000000000000000000000000000000000000000000000000008152600401612b2e9061438a565b60405180910390fd5b6000600260009054906101000a900473ffffffffffffffffffffffffffffffffffffffff1673ffffffffffffffffffffffffffffffffffffffff166323b872dd8888876040518463ffffffff1660e01b8152600401612b9893929190614165565b602060405180830381600087803b158015612bb257600080fd5b505af1158015612bc6573d6000803e3d6000fd5b505050506040513d601f19601f82011682018060405250810190612bea9190613b5f565b905080612c2c576040517f08c379a0000000000000000000000000000000000000000000000000000000008152600401612c239061434a565b60405180910390fd5b600360009054906101000a900473ffffffffffffffffffffffffffffffffffffffff1673ffffffffffffffffffffffffffffffffffffffff166323b872dd8789856040518463ffffffff1660e01b8152600401612c8b93929190614165565b602060405180830381600087803b158015612ca557600080fd5b505af1158015612cb9573d6000803e3d6000fd5b505050506040513d601f19601f82011682018060405250810190612cdd9190613b5f565b905080612d1f576040517f08c379a0000000000000000000000000000000000000000000000000000000008152600401612d16906143aa565b60405180910390fd5b50613174565b7f5136f0b0645440da828e58bd4667e082f3323762f139d86b11fea0a7e9a9e7418682600360009054906101000a900473ffffffffffffffffffffffffffffffffffffffff168887600260009054906101000a900473ffffffffffffffffffffffffffffffffffffffff1688604051612da4979695949392919061419c565b60405180910390a180600360009054906101000a900473ffffffffffffffffffffffffffffffffffffffff1673ffffffffffffffffffffffffffffffffffffffff1663dd62ed3e88306040518363ffffffff1660e01b8152600401612e0a92919061413c565b60206040518083038186803b158015612e2257600080fd5b505afa158015612e36573d6000803e3d6000fd5b505050506040513d601f19601f82011682018060405250810190612e5a9190613bed565b1015612e9b576040517f08c379a0000000000000000000000000000000000000000000000000000000008152600401612e929061432a565b60405180910390fd5b82600260009054906101000a900473ffffffffffffffffffffffffffffffffffffffff1673ffffffffffffffffffffffffffffffffffffffff1663dd62ed3e87306040518363ffffffff1660e01b8152600401612ef992919061413c565b60206040518083038186803b158015612f1157600080fd5b505afa158015612f25573d6000803e3d6000fd5b505050506040513d601f19601f82011682018060405250810190612f499190613bed565b1015612f8a576040517f08c379a0000000000000000000000000000000000000000000000000000000008152600401612f819061442a565b60405180910390fd5b6000600360009054906101000a900473ffffffffffffffffffffffffffffffffffffffff1673ffffffffffffffffffffffffffffffffffffffff166323b872dd8888856040518463ffffffff1660e01b8152600401612feb93929190614165565b602060405180830381600087803b15801561300557600080fd5b505af1158015613019573d6000803e3d6000fd5b505050506040513d601f19601f8201168201806040525081019061303d9190613b5f565b90508061307f576040517f08c379a00000000000000000000000000000000000000000000000000000000081526004016130769061434a565b60405180910390fd5b600260009054906101000a900473ffffffffffffffffffffffffffffffffffffffff1673ffffffffffffffffffffffffffffffffffffffff166323b872dd8789876040518463ffffffff1660e01b81526004016130de93929190614165565b602060405180830381600087803b1580156130f857600080fd5b505af115801561310c573d6000803e3d6000fd5b505050506040513d601f19601f820116820180604052508101906131309190613b5f565b905080613172576040517f08c379a0000000000000000000000000000000000000000000000000000000008152600401613169906143aa565b60405180910390fd5b505b505050505050565b6040518060400160405280600881526020017f636c65616e5f7570000000000000000000000000000000000000000000000000815250601090805190602001906131c7929190613945565b5060005b600d805490508110156132c2576000600d8281548110613214577f4e487b7100000000000000000000000000000000000000000000000000000000600052603260045260246000fd5b906000526020600020015490506000600c600083815260200190815260200160002090506000818054905014156132ad57600c600083815260200190815260200160002060006132649190613a18565b600d838154811061329e577f4e487b7100000000000000000000000000000000000000000000000000000000600052603260045260246000fd5b90600052602060002001600090555b505080806132ba90614779565b9150506131cb565b5060005b600f805490508110156133bd576000600f828154811061330f577f4e487b7100000000000000000000000000000000000000000000000000000000600052603260045260246000fd5b906000526020600020015490506000600e600083815260200190815260200160002090506000818054905014156133a857600e6000838152602001908152602001600020600061335f9190613a18565b600f8381548110613399577f4e487b7100000000000000000000000000000000000000000000000000000000600052603260045260246000fd5b90600052602060002001600090555b505080806133b590614779565b9150506132c6565b50565b600033905090565b6000811161340b576040517f08c379a00000000000000000000000000000000000000000000000000000000081526004016134029061426a565b60405180910390fd5b50565b60008060009054906101000a900473ffffffffffffffffffffffffffffffffffffffff169050816000806101000a81548173ffffffffffffffffffffffffffffffffffffffff021916908373ffffffffffffffffffffffffffffffffffffffff1602179055508173ffffffffffffffffffffffffffffffffffffffff168173ffffffffffffffffffffffffffffffffffffffff167f8be0079c531659141344cd1fd0a4f28419497f9722a3daafe3b4186f6b6457e060405160405180910390a35050565b6134db816133c8565b50565b600081156134ef57600d90506134f4565b600f90505b919050565b60005b600d8054905081101561371b576000600d8281548110613545577f4e487b7100000000000000000000000000000000000000000000000000000000600052603260045260246000fd5b906000526020600020015490506000600c600083815260200190815260200160002090506000805b82805490508110156136f657858382815481106135b3577f4e487b7100000000000000000000000000000000000000000000000000000000600052603260045260246000fd5b906000526020600020015414156136e35760008590505b600184805490506135db9190614613565b81101561368c57836001826135f09190614563565b81548110613627577f4e487b7100000000000000000000000000000000000000000000000000000000600052603260045260246000fd5b906000526020600020015484828154811061366b577f4e487b7100000000000000000000000000000000000000000000000000000000600052603260045260246000fd5b9060005260206000200181905550808061368490614779565b9150506135ca565b50828054806136c4577f4e487b7100000000000000000000000000000000000000000000000000000000600052603160045260246000fd5b60019003818190600052602060002001600090559055600191506136f6565b80806136ee90614779565b91505061356d565b5080156137055750505061371b565b505050808061371390614779565b9150506134fc565b5050565b60005b600f80549050811015613941576000600f828154811061376b577f4e487b7100000000000000000000000000000000000000000000000000000000600052603260045260246000fd5b906000526020600020015490506000600e600083815260200190815260200160002090506000805b828054905081101561391c57858382815481106137d9577f4e487b7100000000000000000000000000000000000000000000000000000000600052603260045260246000fd5b906000526020600020015414156139095760008590505b600184805490506138019190614613565b8110156138b257836001826138169190614563565b8154811061384d577f4e487b7100000000000000000000000000000000000000000000000000000000600052603260045260246000fd5b9060005260206000200154848281548110613891577f4e487b7100000000000000000000000000000000000000000000000000000000600052603260045260246000fd5b906000526020600020018190555080806138aa90614779565b9150506137f0565b50828054806138ea577f4e487b7100000000000000000000000000000000000000000000000000000000600052603160045260246000fd5b600190038181906000526020600020016000905590556001915061391c565b808061391490614779565b915050613793565b50801561392b57505050613941565b505050808061393990614779565b915050613722565b5050565b828054613951906146f9565b90600052602060002090601f01602090048101928261397357600085556139ba565b82601f1061398c57805160ff19168380011785556139ba565b828001600101855582156139ba579182015b828111156139b957825182559160200191906001019061399e565b5b5090506139c79190613a87565b5090565b828054828255906000526020600020908101928215613a07579160200282015b82811115613a065782518255916020019190600101906139eb565b5b509050613a149190613a87565b5090565b5080546000825590600052602060002090810190613a369190613a87565b50565b6040518060c001604052806000815260200160008152602001600073ffffffffffffffffffffffffffffffffffffffff16815260200160001515815260200160008152602001600081525090565b5b80821115613aa0576000816000905550600101613a88565b5090565b600081359050613ab381614be5565b92915050565b600081359050613ac881614bfc565b92915050565b600081519050613add81614bfc565b92915050565b600081359050613af281614c13565b92915050565b600081519050613b0781614c13565b92915050565b600060208284031215613b1f57600080fd5b6000613b2d84828501613aa4565b91505092915050565b600060208284031215613b4857600080fd5b6000613b5684828501613ab9565b91505092915050565b600060208284031215613b7157600080fd5b6000613b7f84828501613ace565b91505092915050565b60008060408385031215613b9b57600080fd5b6000613ba985828601613ab9565b9250506020613bba85828601613ae3565b9150509250929050565b600060208284031215613bd657600080fd5b6000613be484828501613ae3565b91505092915050565b600060208284031215613bff57600080fd5b6000613c0d84828501613af8565b91505092915050565b60008060408385031215613c2957600080fd5b6000613c3785828601613ae3565b9250506020613c4885828601613ab9565b9150509250929050565b60008060008060808587031215613c6857600080fd5b6000613c7687828801613ae3565b9450506020613c8787828801613ab9565b9350506040613c9887828801613ae3565b9250506060613ca987828801613ae3565b91505092959194509250565b6000613cc18383614103565b60208301905092915050565b613cd68161467e565b82525050565b613ce58161467e565b82525050565b6000613cf68261451e565b613d008185614541565b9350613d0b8361450e565b8060005b83811015613d3c578151613d238882613cb5565b9750613d2e83614534565b925050600181019050613d0f565b5085935050505092915050565b613d5281614690565b82525050565b613d6181614690565b82525050565b6000613d7282614529565b613d7c8185614552565b9350613d8c8185602086016146c6565b613d9581614820565b840191505092915050565b6000613dad601283614552565b9150613db88261484b565b602082019050919050565b6000613dd0602083614552565b9150613ddb82614874565b602082019050919050565b6000613df3603783614552565b9150613dfe8261489d565b604082019050919050565b6000613e16602383614552565b9150613e21826148ec565b604082019050919050565b6000613e39601183614552565b9150613e448261493b565b602082019050919050565b6000613e5c602683614552565b9150613e6782614964565b604082019050919050565b6000613e7f603883614552565b9150613e8a826149b3565b604082019050919050565b6000613ea2601183614552565b9150613ead82614a02565b602082019050919050565b6000613ec5601683614552565b9150613ed082614a2b565b602082019050919050565b6000613ee8602683614552565b9150613ef382614a54565b604082019050919050565b6000613f0b601183614552565b9150613f1682614aa3565b602082019050919050565b6000613f2e602083614552565b9150613f3982614acc565b602082019050919050565b6000613f51601a83614552565b9150613f5c82614af5565b602082019050919050565b6000613f74602383614552565b9150613f7f82614b1e565b604082019050919050565b6000613f97603683614552565b9150613fa282614b6d565b604082019050919050565b6000613fba601983614552565b9150613fc582614bbc565b602082019050919050565b60c082016000820151613fe66000850182614103565b506020820151613ff96020850182614103565b50604082015161400c6040850182613ccd565b50606082015161401f6060850182613d49565b5060808201516140326080850182614103565b5060a082015161404560a0850182614103565b50505050565b60c08201600080830154905061406081614745565b61406d6000860182614103565b506001830154905061407e81614745565b61408b6020860182614103565b506002830154905061409c8161472b565b6140a96040860182613ccd565b506140b38161475f565b6140c06060860182613d49565b50600383015490506140d181614745565b6140de6080860182614103565b50600483015490506140ef81614745565b6140fc60a0860182614103565b5050505050565b61410c816146bc565b82525050565b61411b816146bc565b82525050565b60006020820190506141366000830184613cdc565b92915050565b60006040820190506141516000830185613cdc565b61415e6020830184613cdc565b9392505050565b600060608201905061417a6000830186613cdc565b6141876020830185613cdc565b6141946040830184614112565b949350505050565b600060e0820190506141b1600083018a613cdc565b6141be6020830189614112565b6141cb6040830188613cdc565b6141d86060830187613cdc565b6141e56080830186614112565b6141f260a0830185613cdc565b6141ff60c0830184614112565b98975050505050505050565b600060208201905081810360008301526142258184613ceb565b905092915050565b60006020820190506142426000830184613d58565b92915050565b600060208201905081810360008301526142628184613d67565b905092915050565b6000602082019050818103600083015261428381613da0565b9050919050565b600060208201905081810360008301526142a381613dc3565b9050919050565b600060208201905081810360008301526142c381613de6565b9050919050565b600060208201905081810360008301526142e381613e09565b9050919050565b6000602082019050818103600083015261430381613e2c565b9050919050565b6000602082019050818103600083015261432381613e4f565b9050919050565b6000602082019050818103600083015261434381613e72565b9050919050565b6000602082019050818103600083015261436381613e95565b9050919050565b6000602082019050818103600083015261438381613eb8565b9050919050565b600060208201905081810360008301526143a381613edb565b9050919050565b600060208201905081810360008301526143c381613efe565b9050919050565b600060208201905081810360008301526143e381613f21565b9050919050565b6000602082019050818103600083015261440381613f44565b9050919050565b6000602082019050818103600083015261442381613f67565b9050919050565b6000602082019050818103600083015261444381613f8a565b9050919050565b6000602082019050818103600083015261446381613fad565b9050919050565b600060c08201905061447f6000830184613fd0565b92915050565b600060c08201905061449a600083018461404b565b92915050565b60006020820190506144b56000830184614112565b92915050565b600060a0820190506144d06000830188614112565b6144dd6020830187613cdc565b6144ea6040830186613d58565b6144f76060830185614112565b6145046080830184614112565b9695505050505050565b6000819050602082019050919050565b600081519050919050565b600081519050919050565b6000602082019050919050565b600082825260208201905092915050565b600082825260208201905092915050565b600061456e826146bc565b9150614579836146bc565b9250827fffffffffffffffffffffffffffffffffffffffffffffffffffffffffffffffff038211156145ae576145ad6147c2565b5b828201905092915050565b60006145c4826146bc565b91506145cf836146bc565b9250817fffffffffffffffffffffffffffffffffffffffffffffffffffffffffffffffff0483118215151615614608576146076147c2565b5b828202905092915050565b600061461e826146bc565b9150614629836146bc565b92508282101561463c5761463b6147c2565b5b828203905092915050565b600073ffffffffffffffffffffffffffffffffffffffff82169050919050565b600060ff82169050919050565b6000819050919050565b60006146898261469c565b9050919050565b60008115159050919050565b600073ffffffffffffffffffffffffffffffffffffffff82169050919050565b6000819050919050565b60005b838110156146e45780820151818401526020810190506146c9565b838111156146f3576000848401525b50505050565b6000600282049050600182168061471157607f821691505b60208210811415614725576147246147f1565b5b50919050565b600061473e61473983614831565b614647565b9050919050565b600061475861475383614831565b614674565b9050919050565b600061477261476d8361483e565b614667565b9050919050565b6000614784826146bc565b91507fffffffffffffffffffffffffffffffffffffffffffffffffffffffffffffffff8214156147b7576147b66147c2565b5b600182019050919050565b7f4e487b7100000000000000000000000000000000000000000000000000000000600052601160045260246000fd5b7f4e487b7100000000000000000000000000000000000000000000000000000000600052602260045260246000fd5b6000601f19601f8301169050919050565b60008160001c9050919050565b60008160a01c9050919050565b7f416d6f756e74206d757374206265203e20300000000000000000000000000000600082015250565b7f45787465726e616c206f7264657220696420616c726561647920657869737473600082015250565b7f7b4275797d204e6f7420656e6f7567682066756e647320666f7220736574746c60008201527f656d656e7420666f72206d6174636865645f6f776e6572000000000000000000602082015250565b7f43726f737365642073656c6c207072696365203c20626573742062757920707260008201527f6963650000000000000000000000000000000000000000000000000000000000602082015250565b7f5072696365206d757374206265203e2030000000000000000000000000000000600082015250565b7f4f776e61626c653a206e6577206f776e657220697320746865207a65726f206160008201527f6464726573730000000000000000000000000000000000000000000000000000602082015250565b7f7b4275797d204e6f7420656e6f7567682066756e647320666f7220736574746c60008201527f656d656e742066726f6d206d6174636865645f6f776e65720000000000000000602082015250565b7f5472616e736665722031206661696c6564000000000000000000000000000000600082015250565b7f43616e6e6f74206d61746368206f776e206f7264657200000000000000000000600082015250565b7f7b4275797d204e6f7420656e6f7567682066756e647320666f72206f7264657260008201527f5f6f776e65720000000000000000000000000000000000000000000000000000602082015250565b7f5472616e736665722032206661696c6564000000000000000000000000000000600082015250565b7f4f776e61626c653a2063616c6c6572206973206e6f7420746865206f776e6572600082015250565b7f5061727469636970616e74206973206e6f7420616c6c6f776564000000000000600082015250565b7f43726f7373656420627579207072696365203e20626573742073656c6c20707260008201527f6963650000000000000000000000000000000000000000000000000000000000602082015250565b7f7b4275797d204e6f7420656e6f7567682066756e647320666f7220736574746c60008201527f656d656e742066726f6d206f726465725f6f776e657200000000000000000000602082015250565b7f54726164696e6720686173206265656e2064697361626c656400000000000000600082015250565b614bee8161467e565b8114614bf957600080fd5b50565b614c0581614690565b8114614c1057600080fd5b50565b614c1c816146bc565b8114614c2757600080fd5b5056fe73746f72696e67206c696d6974206f7264657220286e6f206f70706f73697465206f72646572296d617463686564207363656e6172696f2e20656d697474696e67204f72646572557064617465644576656e746d617463686564207363656e6172696f2e2073697a65206c6566742e20656d697474696e67204f72646572506c616365644576656e746d617463686564207363656e6172696f2e2073697a65206c6566742e20656d697474696e67204f72646572557064617465644576656e7473746f726564206c696d6974206f726465722e20656d697474696e67206576656e742020286e6f206f70706f73697465206f7264657229a2646970667358221220486b5d70a7b252413dafd7d81a904c19262ccc5f4bd2321b0996a42c6ab1133e64736f6c63430008040033",
  "linkReferences": {},
  "deployedLinkReferences": {}
}